:020000040800F2
:10000000005000208D010008890100080000000058
:10001000890100088901000889010008000000002A
:10002000000000000000000000000000890100083E
:10003000890100080000000089010008890100080A
:100040008901000889010008890100088901000868
:100050008901000889010008890100088901000858
:100060008901000889010008890100088901000848
:100070008901000889010008890100088901000838
:100080008901000889010008890100088901000828
:100090008901000889010008890100088901000818
:1000A0008901000889010008890100088901000808
:1000B00089010008890100088901000889010008F8
:1000C00089010008890100088901000889010008E8
:1000D00089010008890100088901000889010008D8
:1000E00089010008890100088901000889010008C8
:1000F00089010008890100088901000889010008B8
:1001000089010008890100088901000889010008A7
:100110008901000889010008890100088901000897
:100120008901000889010008890100088901000887
:100130008901000889010008890100088901000877
:100140008901000889010008890100088916000852
:100150008901000889010008890100088901000857
:100160008901000889010008890100088901000847
:100170008901000889010008890100088901000837
:100180008901000889010008FEE70000684620F0A8
:1001900007018D4601B500230A4A0B499818884289
:1001A00004D20A49585898500433F5E7084B094AD5
:1001B000934203D2002043F8040BF8E700F00CF858
:1001C000FEE700BF000000203800002000390008D2
:1001D00038000020481C00202DE9F743002000F0E3
:1001E00061FF002001F008F9012001F09DF8684648
:1001F00001F075FE002401238DF805408DF80430D0
:100200008DF80640B5490A196058958802AE0583F5
:100210006946083446F8085D01F014FE182CF1D147
:100220000027AF4CE31938599A8802A9028341F894
:10023000082D0837694601F005FE302FF1D1002660
:10024000A84DAF197059BC8802AB44836946083683
:1002500043F8084D01F0F6FD182EF1D1A24D082605
:10026000284669460096802401F0ECFD2E839F4DC0
:10027000DFF87C8208264FF020094FF40057A8F8D9
:100280001A9001206F836E8301F0D8F8A8F81890B7
:1002900001202F832E8301F0D1F8013CE7D12046C5
:1002A0008F4A131881589D88083030284D83F7D124
:1002B000012001F0C3F80027894EF019BC5982884B
:1002C0000837302F2283F7D1012001F0B7F800253D
:1002D00001218DF804508DF80710804B5F1902AC96
:1002E000BE88E85844F8086D6946083501F0AAFD53
:1002F000182DF2D100257A48421902A9938828586E
:1003000041F8083D0835694601F09CFD302DF2D1D9
:100310000027744EF41902A8A588694640F8085DC4
:10032000B859083701F08EFD182FF2D1704F6420B4
:1003300001F022F83A6902F0010501F0B4F9C6B201
:1003400016B93B69D9070BD53DB18020012101F0D9
:1003500023FE8020002101F01FFE002001F0AAF9F9
:10036000002000F02FFB002000F024F9B6B960490E
:100370000C69E20770D45F480778422F6CD15E4A5F
:100380001678002E68D001F0D1FC0120002100F089
:10039000DFFF5A4BDF78082F46D103E0102000F032
:1003A000DDFA59E06FF00700012101F0E9FD6FF07F
:1003B0008000012101F0F0FD4FF0FF30012101F03C
:1003C000F7FD4FF0FF30012101F0FEFD4FF0FF304F
:1003D000002101F0D5FD4FF0FF30002101F0DCFDE0
:1003E0004FF0FF30002101F0E3FD4FF0FF3000211E
:1003F00001F0EAFD45B18020012101F0CDFD802012
:10040000002101F0C9FD08E001F04DF928B13C4898
:10041000D0F8E4550DB102F0C5FA3A4E346884F3D1
:10042000088836490A68904700F0CEFF012001464F
:1004300000F08EFF00F0D2FF40F2F31398421F4607
:10044000F8D900F0C1FF0120002100F081FF00F089
:10045000C5FFB842FBD9E7E700F0B6FF00F0BEFFEA
:100460003227B0FBF7F364210446B3FBF1F001FB44
:10047000103242F21073B4FBF3F1560841F28830A7
:1004800003FB11428242B4FBF7F307FB134188BF21
:10049000C6EB07060120B14294BF002101210A27C3
:1004A00000F056FFB4FBF7F607FB16440CB900F05A
:1004B000A9FD002000F03AFD00F090FF44F61F6116
:1004C0008842CBD900F080F80028C7D1002D3FF436
:1004D0005AAF074A1069C307C0D454E73036000842
:1004E0004836000818360008001002400004024098
:1004F00000000240D23F0008D33F0008044000083B
:10050000EC15002000400008124B1A78032A10B5A1
:100510000BD811490C6800F07F004FEAC41444EA7C
:10052000001008600FD104220EE0072A0FD80B49F3
:100530000C6800F07F004FEAC41444EA0010086021
:1005400001D1082200E001321A70002010BD4FF0E6
:10055000FF3010BDFC0400203800002044000020C3
:1005600070B5134B88B016461A7804460D468DF8C0
:1005700000209978DA7858781B798DF802108DF878
:1005800003208DF801008DF8043000F083FD8DF814
:100590000500F7208DF808006946204609228DF8ED
:1005A00006508DF8076000F087FA08B070BD00BFF4
:1005B0007837000810B9034B187070474FF0FF30C0
:1005C000704700BFFD040020014B1878704700BF42
:1005D000FD0400202DE9F04198460C4615460646DC
:1005E00000F04CFD00F0F0FEB8F1010F04D0B8F1BE
:1005F000020F40F0A38189E0B14B14B1012C0AD164
:1006000004E01C70AF4BB04A1C6092E019780729D7
:1006100000F2918197E01978082903D030460E2125
:100620000122E5E0A948AA4C02784378817822703B
:10063000C2780079A34FA44D6370A170E27020715D
:100640003F682D6800F026FD4FEA556E6071780E08
:100650000223E071C7F386417044A3712172C7F38E
:10066000C62341186372C7F3061253FA81F3C5F328
:100670008640A27252FA83F250FA82F1C5F3C62381
:1006800053FA81F22073C5F3061050FA82F16373B6
:100690000023A07384F80BE0C9B21A460F34184641
:1006A000A84221D010F807E04FF0080C01335200A7
:1006B000DBB242EADE12062B4FEA4E0ED2B25FFAEE
:1006C0008EFE0AD9C3F1070302FA03F2D2B251181F
:1006D000002304F8012BC9B21A460CF1FF3C1CF0B0
:1006E000FF0CE3D10130DBE71BB18B1804F8012BC1
:1006F000D9B24A42764902F07F00F723A21C20704B
:1007000063703046521A00F0D7F914E114B1012C8D
:1007100053D110E06A4B6B496B486E4A1C700C60F9
:1007200004606D4B6D496E4814706E4A1C700C600D
:1007300004601460FFE062480178072907D8654922
:1007400008782A180A702846FFF7DEFEF3E0082929
:100750002BD160480278AB18037060480368B3F58A
:10076000806F80F0E880584E5E4F5D4C3668386888
:10077000226807240132C5F380176D00072A47EA73
:100780004000EDB206D9524AD0540133B34228BFDB
:1007900009210022013CEDD1524C206050480260FA
:1007A0004E4A1360464B1970C5E0092902D14A4BE5
:1007B0001D70C0E00C220270BDE0434B47481F682B
:1007C0000168B942FFF42AAF3D4A13780C2B03D1DC
:1007D00030460E2142460BE03E4A3F4813780178EE
:1007E000584200F07F02914205D030460E2103228C
:1007F000FFF7B6FE9FE0334B3B4901240C701C68A9
:1008000044EA0700830740F08C80384A944202D8BB
:100810006FF0070087E000F0D9FC00F100614B1E8B
:100820009C426DD801F074FA00230C2159433048E2
:100830000A58944224D12F492F488C4201D10022DA
:1008400002600121006801FA03F1014203D02B4D3F
:100850004FF000082EE041EA000227490A60244ACE
:100860000C2000FB03230221586801F0B5FA082888
:10087000EDD04FF0FF3001F061FA6FF0030052E06D
:1008800001330C2BD1D1E2E76B7829781A0442EAC4
:10089000012315F8011CAA780B4343EA026101F019
:1008A0007DFA04350828E4D101F02AFA01F020FA93
:1008B00008F10408B84508EB0400E5D342E000BFA6
:1008C000FC04002038000020440000207837000895
:1008D0004C0000204000002048000020F8040020C8
:1008E000F404002000050020FD040020FF3F000864
:1008F00078360008004000083C0000204D00002031
:10090000B4F1005F84D300F069FC00F10050421E96
:1009100094423FF67DAF20460E493A4602F072FE01
:1009200010E06FF0080043420E213046DAB2FFF7C4
:1009300017FE00F067FB0020BDE8F0814FF0FF30AC
:10094000BDE8F0810449087842420F21304602F0A8
:100950007F02ECE74C0000204000002010B5114B56
:1009600088B01A7899788DF800200446DA7858789B
:100970001B798DF802108DF803208DF801008DF899
:10098000043000F087FBF7218DF8050001208DF879
:1009900006008DF8071020466946082200F08CF802
:1009A00008B010BD7837000808B52020FFF7D6FF43
:1009B0001020FFF7D3FF024B0020187008BD00BFC6
:1009C000FD04002010B5044600282CD1174A184910
:1009D000102313700B70174A174B184918601060DA
:1009E0000860174B174A184918601060086000F03B
:1009F00061FF164B164A1C70164B174914701C7079
:100A00000A78C00F422A04D114490A78110658BF47
:100A10001A70134B00211980124900220023C1E9EA
:100A20000023404210BD4FF0FF3010BD00000020F9
:100A300001000020040500200C05002030050020E6
:100A40003805002020050020100500201405002096
:100A50001805002015050020D03F0008D13F0008F0
:100A6000160500202805002010F0F00F38B50446C8
:100A70000D4604D101280CBF0C4B0D4B1C780D4BBF
:100A80001A6864F3071542B904F0F004102C0AD177
:100A90002846BDE8384000F07BBF204629469047F5
:100AA0000028F1D038BD4FF0FF3038BD01000020E4
:100AB00000000020040500202DE9F04180460E468C
:100AC00017460024BC4235D23B1B022B0DD0032B12
:100AD00019D0012B19D1325D052161F3030562F3B1
:100AE0000F2501346FF317450AE03119305D4A785C
:100AF000062363F3030560F30F2562F31745023401
:100B00006FF31F650FE0072000E0042060F303058A
:100B10003019335D4178827863F30F2561F317450F
:100B200062F31F65033440462946FFF79DFF002806
:100B3000C8DA00E00020BDE8F081000030B5A1B0C7
:100B4000F0238DF80030134B7E2232258DF80320E0
:100B50001A788DF8045000240F258DF801408DF887
:100B600002408DF805208DF8065002AB0D5D5A1E2F
:100B700035B101341A4603F8015C0133642CF5D118
:100B8000F72102F8011B6946521AFFF795FF21B0C1
:100B900030BD00BF1505002000B589B0F0238DF8E9
:100BA000003000238DF801308DF802307E238DF85F
:100BB000033032238DF80430084B8DF806101B7873
:100BC0008DF80720F7218DF80810092269468DF865
:100BD0000530FFF771FF09B000BD00BF150500200B
:100BE000F0B5454E8BB0337804460D461746FFF7F7
:100BF000F1FC00287CDA31780D295AD001D829B1CE
:100C000069E00E2974D00F2965D15AE03B4B1DB124
:100C1000012D03D11F706BE01D7069E01878052865
:100C200029D011D8022820D004D801283DD120464F
:100C3000334937E003281BD0042836D100F0C0FA2E
:100C400030490246684623E0082826D006D8062800
:100C500019D0072829D100F0C1FA16E009281FD0C1
:100C60007F2822D1FFF7A0FE42E02046264919E066
:100C70002046264916E0684600F0B4FA00282046CF
:100C800009DA23490EE000F0A1FA2249024668463B
:100C900001F004F82046694604E020461E4901E0C0
:100CA0001E492046FFF74AFF22E020460E210D2272
:100CB00004E0022D1CD120460E211022FFF76CFF0C
:100CC00016E0174A0DB1012D01D1556010E05268B0
:100CD00072B92046F2E70E210A462046FFF75CFF74
:100CE0000F49054B0A7800206FF307020A7018704D
:100CF00000200BB0F0BD00BF080500203405002027
:100D0000183700083A3700081F3700083037000846
:100D10003F370008413700084437000856370008BD
:100D200018050020F72910B50A465AD82E4B197815
:100D300001F0080303F0FF041BB12C4B1B78834226
:100D40004CD1A0F11103062B48D9284B187004BBD5
:100D50002548037803F00703042B03D82448C05C1C
:100D6000904221D101F00701052903D121480178E2
:100D7000914219D15A1C1C4B197802F0070060F3FC
:100D80000201052819702CD9CAB242F00800187067
:100D900027E0130611D5F72A06D101F01001CBB2D6
:100DA00013B10221FFF71CFF0F4B134A19780020E3
:100DB0006FF307011970107010BD01F01004E4B258
:100DC00044B9094B197841F0100119700A4B2146BA
:100DD0001A7000E00121FFF703FF02E04FF0FF303F
:100DE00010BD002010BD00BF180500201405002014
:100DF00078370008150500200805002001F00F03D2
:100E00002DE9F0470F46C1F30728C1F307494FEA20
:100E1000116A03F1080101F00F010629064602D804
:100E2000002A58D17AE0B8F1F00F05D003F10C0098
:100E300000F00F01032929D83A49D1E9004554EAC5
:100E4000050023D106F0F004302C4FF000000CD048
:100E5000502C13D0102C19D1334C208006F00F00E9
:100E6000012404FA00F0088010E02F4C208006F0E6
:100E70000F00012404FA00F0488007E02A4C20808B
:100E800006F00F00012404FA00F08880991E0D2955
:100E900044D8DFE801F01E1E071B242443434343CC
:100EA00043434307B8F1F70F13D83046414607F0E4
:100EB0000F07FFF737FF0F2F30D049463046FFF7B7
:100EC00031FF30465146FFF72DFF27E0B8F1F70F0D
:100ED00005D91AB3304627F0F00190471EE01A1FDB
:100EE00012F0FF041AD030464146FFF71BFF012CD9
:100EF0000CD030464946FFF715FF022C05D030468E
:100F00005146FFF70FFFD04600E0C846B8F1F70F93
:100F100004D1044800220023C0E900230020BDE8DA
:100F2000F08700BF280500201605002013B50446F1
:100F300001A800F045FD002807DB0199C1F303106B
:100F400010302246FFF75AFFF2E72849D1E9002383
:100F500052EA030047D0264B1888B0F57A7F42D971
:100F60000A8862B1002142FA01F313F0010003D1B3
:100F700001311029F7D101461031C8B21AE04B886F
:100F80005BB143FA02F010F0010103D10132102AE3
:100F9000F7D10A463032D0B20CE0888850B140FA1E
:100FA00003F111F0010203D10133102BF7D11346E5
:100FB0005033D8B20F4B1A7802F00801C9B249B1C8
:100FC0000D490978814205D16FF307021A700B4B66
:100FD00000221A700A490A6802B1904703480022A9
:100FE0000023C0E9002300201CBD00BF280500200D
:100FF0001605002018050020140500200805002013
:101000003805002010B500F007FD044600F048F850
:10101000054B1A884FF6FF718A4240EA040001D05E
:1010200001321A8010BD00BF16050020114BF7B524
:101030001C680746E4B1C1F30764C1F30720C1F39C
:1010400007420D4D8DF8064001F00F0100246E5C43
:101050008DF804008DF805202546B54208DA01AA6E
:10106000044B515D1B683846984701350443F4E74B
:101070002046FEBD0C05002008370008012803D0DB
:10108000034B1870002070474FF0FF30704700BFCF
:1010900001000020014B1878704700BF15050020A3
:1010A0000020704713B5044600287AD11F20012183
:1010B00000F036FF3C4B00949A6802F00C000828C0
:1010C00002D1012000905DE0196841F001021A6030
:1010D0009C60186820F08471344821F480321A60D2
:1010E0005860196821F480221A60DC600194186845
:1010F00040F4803119602C4B1A6802F400300090E3
:1011000001994A1C0192009818B90199B1F5A06F94
:10111000F1D11B6813F4003218BF0122009200982D
:1011200001282FD1204B2248196C41F080521A64BB
:10113000016841F48042026098689860996841F4BF
:1011400000429A6098681B4A40F4A05199605A6026
:10115000186840F0807119601868134A8101FBD546
:10116000154B40F205611960906820F00301916011
:10117000936843F0020090600B4A916801F00C0301
:10118000082BF9D10D48002100F0A2FD4FF440706A
:1011900000F094FD009A012A14BF4FF0FF300020A8
:1011A00001E04FF0FF301CBD003802401030002439
:1011B0000070004008544007003C02400000000856
:1011C000014B1868704700BF002004E0024B1888EC
:1011D00081B28802704700BF227AFF1F4FF440306F
:1011E0007047000000230B4A591089180A78D90764
:1011F00058BF120902F00F02092A94BF302137218B
:101200008A18C2540133182BEDD10021017608460B
:10121000704700BF107AFF1F074B1A681AB9EFF327
:101220001081064801604FF0010080F310881A68B1
:10123000511C196000207047400500203C0500202B
:10124000074A13683BB1581E106038B905490A684F
:1012500082F3108802E04FF0FF30704700207047A3
:10126000400500203C0500200F291CD80F4BDA68F0
:10127000D343C3F30222C2F1040301FA03F10901CB
:1012800000F16043CAB203F56141012381F80023F4
:1012900042B200F01F00510903FA00F2044840F87E
:1012A0002120002070474FF0FF30704700ED00E034
:1012B00000E100E073B5054668460E46144600F0AE
:1012C0000EFE02238DF805300096062C29D8DFE8A3
:1012D00004F02604090F13181D0003208DF80400E4
:1012E000002302E000238DF804308DF8073012E06F
:1012F00000228DF80420F8E700218DF80410012366
:10130000F3E701208DF80400002302E001238DF8AB
:1013100004308DF806302846694600F093FD002021
:1013200001E06FF001007CBDC30710B5044605D590
:1013300006484FF480510522FFF7BCFF34F00F033D
:1013400014BF6FF00100002010BD00BF000C024070
:10135000C20707D5074B11F0010F4FF4805214BF9D
:101360001A835A8330F00F0314BF6FF0010000207E
:10137000704700BF000C024030B5012185B0044623
:10138000102000F0E5FD54204443611E0D4CADF8E3
:1013900004104FF6FF730025204601A90293ADF813
:1013A0000C50ADF8065000F01BFE01210A46204605
:1013B00000F060FE2046012100F050FE284605B0F6
:1013C00030BD00BF001000400348012108B5416254
:1013D00000F064FE002008BD00100040054810B574
:1013E0000121446A00F04FFE00280CBF20464FF058
:1013F000FF3010BD001000401FB50446B8B90120F1
:10140000014600F0B1FDA7204FF6FF73ADF80400D0
:1014100001A909480293ADF80C40ADF8064000F070
:10142000DFFD0548012100F019FE204601E04FF0E4
:10143000FF3004B010BD00BF00000140044B596AEA
:1014400089B25A6A521A92B28242FAD9002070477F
:101450000000014012230B8000487047B437000899
:1014600004230B8000487047B0370008704770476E
:101470007047704770470020704700207047000099
:1014800065230B8000487047F337000810B50B4BFD
:101490008CB098781A888DF8060002A80C46ADF832
:1014A0000420FFF79FFE0028ACBF02A801A8044952
:1014B000224601F065F902480CB010BDE43700087F
:1014C000E41B002070B5164B86B00A4601AC03F150
:1014D000100618685968254603C50833B3422C46E0
:1014E000F7D11888002328800E495818017859B17F
:1014F00020395F298CBF002101210133202B06D028
:101500000029F1D101A805E0002BFBD001E0002962
:10151000F8D00448044901F033F9034806B070BD1F
:1015200044370008E03F0008E41B0020FFF7CABF73
:10153000FFF7C8BF1146FFF7C5BF00001FB5084C35
:101540000A462068616801AB03C3A068054C1860B7
:10155000214601A801F014F9204604B010BD00BFD7
:10156000E7370008E41B0020022908B503D108462C
:10157000002100F067FA002008BD012908B503D159
:101580000846002100F056FA002008BD10B50221DF
:10159000044601F046FD2046812101F042FD002075
:1015A00010BD002000F08CB9012000F089B90000C6
:1015B000022110B5402204460B4601F011FD8121A5
:1015C00040220223204601F00BFD0221034A044879
:1015D000402301F03FFD002010BD00BFAC150020EE
:1015E000EC15002073B50120244C014600F098FC56
:1015F00000204FF4D853022503268DF806008DF8FD
:1016000007006946204600938DF804508DF8056068
:1016100000F018FC204608210A2200F069FC204650
:1016200009210A2200F064FC20460B210A2200F066
:101630005FFC0A2220460C2100F05AFC4FF4806126
:1016400000918DF804502046012569468DF8075019
:101650008DF8056000F0F6FB0A210A46204600F0EE
:1016600047FC29464FF4804000F07EFC802029464C
:1016700000F062FC284600F035FB7CBD0000024013
:1016800043200821FFF7F0BD014801F06FBD00BF06
:10169000EC15002080B2FFF7D1BE4FF47A735843A7
:1016A00080B2FFF7CBBE4FF0A0431868C0F3C04034
:1016B00070470000022837B5054642D8FFF7F3FF10
:1016C0000446FFF76EFF45BB14F0FF0F25D01E4CFC
:1016D0002046FFF787FF1D481D491E4AC4F8E40550
:1016E000C4F8E81520460121C4F8EC2501F0AEF855
:1016F000204601F050F9204601F0C0F92046FFF7DE
:10170000BFFF01210323204684F8101184F8123111
:10171000FFF74EFFFFF748FF11E00D4B0D4A009316
:1017200001210A4B084800F0BBFD074801F016FDF7
:101730004CF25030FFF782FE034801F007FD002015
:1017400001E04FF0FF303EBDEC150020803700086F
:1017500058380008C837000870B5254CD4F8E4356F
:10176000002B43D0FFF758FD22480178002939D0DB
:10177000D4F8DC63B608B3B2002B33D01E4A10880D
:1017800081B21BB2C1F5007293422BDA00241B4DCB
:1017900055F82450C5F3031010302946FFF746FCD6
:1017A00090B9174B174A198889B242F82150198805
:1017B0004A1C91B2B1F5007F198028BF18800E48ED
:1017C00003885A1C91B201800134301B03B2002BF4
:1017D000DDDC0849064800220A7040230221074A3E
:1017E00001F038FCBDE87040FFF72ABD70BD00BFB6
:1017F000EC1500205015002046050020AC150020F7
:1018000052150020500D0020234BD3F8E40510B5ED
:10181000002840D0FFF700FD20490A78002A36D181
:101820001F4B188881B2002931D01E4A1078002839
:101830002DD019888AB2102A98BF1988174B94BFE7
:1018400089B210210120187015480288531A9AB2E3
:10185000028000220BB29A4213DA134B13481C8801
:10186000A4B250F82440124840F8224018880130B1
:1018700080B2B0F5007F188001D3002018800132BB
:10188000E8E705480A4A81219B0001F000FCBDE819
:101890001040FFF7D5BC10BDEC1500204C0D00200A
:1018A000561500205A150020581500204C05002020
:1018B0005C150020002814BF4FF0FF300020704757
:1018C0000D49002310B50B800C4C0D4923800B8073
:1018D0000C4C0D4923700B800C4C0D4923801A468B
:1018E0000B800C4C0C4B012110B121701A7001E0DF
:1018F00022701970002010BD4605002052150020EE
:1019000048050020501500205615002044050020F1
:10191000581500205A1500204C0D002038B5184CE1
:101920002378054613B94FF0FF3038BD15480188BC
:101930008AB2B2F5FF7F07D9FFF766FF2378002B45
:10194000F1D06FF0010038BDFFF766FC0E4B0F4978
:10195000188882B2501C41F8225082B21A8019882D
:1019600088B2B0F5007F01D300221A80054B198898
:10197000481C82B21A80FFF763FC002038BD00BF0C
:101980005A15002056150020440500204C05002063
:1019900010B504462046FFF7C1FF831C08D1074B52
:1019A0001A8842F20F718A4207D8501C1880F1E75A
:1019B000002802DB014B00221A8010BD54150020C4
:1019C000124B10B50446188881B2D9B1FFF724FC38
:1019D0000F4B10491A8890B251F8202022601C88C1
:1019E000601C81B2B1F5007F198001D300221A80FA
:1019F000064C2388581E81B22180FFF721FC2288E3
:101A000090B210BD4FF0FF3010BD00BF4605002062
:101A100048050020500D002008B5054801F01EF8CB
:101A200018B9FFF799FEFFF7EFFE002008BD00BFD1
:101A3000EC150020024B00221A70FFF7E5BE00BF34
:101A40004C0D0020024B01221A70FFF785BE00BF2B
:101A50005015002020B10368197001684A1C02600B
:101A600070472DE9F843141E8046894601DC202783
:101A70000FE0002219F8021009B10132FAE7A24280
:101A8000B4BFC2EB04040C4613F0020F0CBF2027B6
:101A90003027DB070CD42546002D05DD40463946AE
:101AA000FFF7D8FF013DF7E724EAE476A41B00E046
:101AB00000263546C6EB0903595D21B14046FFF7C4
:101AC000C9FF0135F6E72646002E05DD40463946BA
:101AD000FFF7C0FF013EF7E7002CACBF2819281C18
:101AE000BDE8F8832DE9FF470C9EDDF83480814680
:101AF0000C4651B930228DF804208DF8051032467D
:101B000001A94346FFF7ADFF35E033B10A2A04D1FE
:101B1000002902DA4C42012700E0002704AD00232F
:101B200005F8013DAA466CB1B4FBF2F302FB134485
:101B3000092C02DD0E993A396418303405F8014D4C
:101B40001C46EFE787B14EB118F0020F06D04846A9
:101B50002D21FFF77FFF013E012705E02D2005F134
:101B6000FF3A05F8010C00274846514632464346E5
:101B7000FFF777FF381804B0BDE8F087F0B589B0FB
:101B800006460D46059200242B7823B1252B79D1EA
:101B900068786A1C28B9002E7BD030680022027059
:101BA00077E025286DD02D2802D1AA1C012300E062
:101BB0000023174601323978302902D143F002035D
:101BC000F7E700223978A1F130005FFA80FC3D464A
:101BD0000137BCF1090F03D80A2505FB0202F1E722
:101BE000732909D1059F391D059139682A4F30465F
:101BF000002908BF394641E064290ED18DE80C0068
:101C0000059961230293081D096805900A22304650
:101C10000123FFF767FF241839E0782906D10599D9
:101C2000081D8DE80C000590612207E058290AD1B3
:101C30000599081D8DE80C0005904122029230465E
:101C4000096810220BE075290BD18DE80C0005996D
:101C500061230293081D096805900A22304600237B
:101C6000D7E7632913D10599081D0968059000205D
:101C70008DF81C108DF81D0007A93046FFF7F1FE06
:101C8000C9E7154630462978FFF7E4FE01340135EF
:101C90007AE7204609B0F0BD743800080EB40FB5DD
:101CA00005AA019052F8041B01A80392FFF766FFF2
:101CB00004B05DF804EB03B07047000040F0BF6073
:101CC000024B40F40031D960704700BF00ED00E0E6
:101CD00021F0604121F07F02014B10439860704772
:101CE00000ED00E0014B5861704700BF003C01402F
:101CF000024B1A6842F4006018607047003C0240D2
:101D0000024B1A6842F4805018607047003C024051
:101D1000044B1A69002A04DA034800F1883158603C
:101D200059607047003C024023016745024B1A6925
:101D300042F0004018617047003C0240014BD860FF
:101D4000704700BF003C02400B4BDA68D0030DD453
:101D5000D868C1060CD4D96811F0EF0F0AD1DB683E
:101D600013F0020F0CBF08200720704701207047B6
:101D70000520704706207047003C024007B5082345
:101D80008DF80730FFF7E0FF8DF807009DF807009A
:101D90000128F7D09DF807000EBD000070B505467C
:101DA0000E46FFF7EBFF082813D10A4C236923F4F2
:101DB00040702061216941F400722261236943F07F
:101DC000010020612E60FFF7D9FF216921F0010297
:101DD000226170BD003C024070B5064641B1012948
:101DE00008D0022914BF4FF440754FF4007503E08A
:101DF0000D4601E04FF48075FFF7C0FF08281ED1A3
:101E00000F4C236923F44070206121690D43256143
:101E1000226922F0F8032361206940F002010E4399
:101E20002661226942F480332361FFF7A7FF21690D
:101E300021F002022261236923F0F801216170BDC3
:101E4000003C0240F0B50E680022012303FA02F3C1
:101E500003EA06059D423ED107680C79530027FA34
:101E600003F707F00307A7420DD007684FF0030CF4
:101E70000CFA03FC27EA0C070760076804FA03FC66
:101E80004CEA07070760013C012C17D88768032438
:101E900004FA03F427EA040787604C79876804FA98
:101EA00003F43C438460446824EA05058C7945606A
:101EB000456804FA02F4A4B22C434460C5680324C4
:101EC00004FA03F425EA0405C560CD79C46805FA6F
:101ED00003F32343C3600132102AB6D1F0BD0021C1
:101EE0004FF6FF730360017141718171C1717047D9
:101EF00001F00703C908083130B59B0050F82150A4
:101F00000F2404FA03F425EA040440F8214050F8B1
:101F1000214002FA03F2144340F8214030BD000092
:101F2000044B1A6B09B1104301E022EA0000186368
:101F3000704700BF00380240044B5A6B09B1104390
:101F400001E022EA00005863704700BF00380240F9
:101F5000044B1A6C09B1104301E022EA0000186436
:101F6000704700BF00380240044B5A6C09B110435F
:101F700001E022EA00005864704700BF00380240C8
:101F8000044B1A6909B1104301E022EA000018610C
:101F9000704700BF00380240044B5A6909B1104332
:101FA00001E022EA00005861704700BF003802409B
:101FB000044B1A6A09B1104301E022EA00001862DA
:101FC000704700BF00380240044B5A6A09B1104301
:101FD00001E022EA00005862704700BF003802406A
:101FE0001C4A038890429BB212D002F58062904254
:101FF0000ED0B0F1804F0BD0A2F58032904207D0C6
:1020000002F58062904203D002F58062904203D1D3
:102010004A8823F0700313430F4A904208D002F518
:102020008062904204D023F440730A899BB2134328
:1020300003804B680A88C362064B0285984203D02E
:1020400003F58062904201D1897A0186012383825F
:10205000704700BF0000014000100040038819B124
:1020600099B241F0010303E023F001010A04130CCB
:102070000380704783899BB20AB1194301E023EAC8
:10208000010181817047038A828911EA030092B2BB
:1020900003D011420CBF002001207047C9438AB20F
:1020A00002827047D0F8E83510B5044618698047B9
:1020B000032184F81211002010BD08B590F81231E8
:1020C000042180F8133180F81211D0F8E805C268B5
:1020D0009047002008BD08B5D0F8E435D96901B1B2
:1020E0008847002008BD08B5D0F8E435196A88474C
:1020F000002008BD08B5D0F8E435596A88470020AB
:1021000008BD002110B5402204460B4600F068FFD0
:10211000802140220023204600F062FFD4F8E80529
:10212000012384F812314168A0788847002010BD4F
:1021300013B56946044600F023F99DF8001001F03C
:102140001F03012B0CD006D3022B0ED1204669466B
:1021500000F046F90EE02046694600F0BBF909E0C0
:102160002046694600F09EF904E0204601F0800117
:1021700000F0A8FF00201CBD70B50446002947D11F
:1021800090F81131022B37D1D0F83821D0F8243112
:102190009A4211D9D21AC0F83821C078012804D146
:1021A000D4F82811CB18C4F828312046D4F82811C7
:1021B00092B200F0B5F81FE0D0F83C51B5FBF3F651
:1021C00003FB16565EB99D4209D3D0F840219542D3
:1021D00005D2324600F0A4F8C4F840610CE0D4F80F
:1021E000E405C16829B194F81231032B01D12046CE
:1021F0008847204600F0B5F894F81621012A10D13E
:10220000094920690B680022436084F8162108E020
:10221000D0F8E4355B6923B190F81221032A00D18C
:102220009847002070BD00BFE01B002010B5044699
:1022300059BB90F81111032930D1D0F89023D0F870
:102240007C339A4214D9D21AC0F89023C07801285E
:1022500004D1D4F88013C818C4F880039A4228BF68
:102260001A462046D4F8801392B200F062F815E0C6
:10227000D0F8E4150B6923B190F81221032A00D19C
:102280009847204600F05EF808E0D0F8E4359B69F6
:1022900023B190F81221032A00D19847002010BDE5
:1022A0002DE9F041069F0446164698460D46FFF775
:1022B00099F920462946C4F8E485C4F8E875C4F8BD
:1022C000EC6500F042FED4F8E835186880472046F7
:1022D000BDE8F041FFF7D4B9D0F8E43510B50446B5
:1022E0001A689047D4F8E80581688847002010BD37
:1022F00008B5D0F8E4355A689047002008BD38B5D5
:1023000004460D46C4F83C21C4F838211346022285
:1023100080F8112100212A4600F0B9FE002038BDC6
:1023200010B50C4613460021224600F0B0FE0020F6
:1023300010BD10B50C4613460021224600F08AFE5F
:10234000002010BD0021042310B50A46044680F881
:1023500011310B4600F09BFE204600F0D8FD002016
:1023600010BD0021052310B50A46044680F811313E
:102370000B4600F06FFE204600F0C9FD002010BDA6
:1023800090F8CC350B7090F8CD254A7090F8CE358A
:1023900090F8CF2503EB02224A8090F8D03590F8D0
:1023A000D12503EB02228A8090F8D23590F8D3250C
:1023B00003EB022293B2CB800121C0F8403180F8B8
:1023C0001111704710B58021044600F07BFE2046B5
:1023D000002100F077FE2046BDE8104000F097BDD8
:1023E00070B54E788A88012E04460D46D3B211D0BE
:1023F00029D3032E51D190F81221022A2AD0032A80
:1024000049D14988A9B9A3B1802B12D0194600F04F
:1024100059FE0EE090F81221022A1BD0032A3AD16D
:102420004988002939D153B1802B08D0194600F0D2
:1024300067FED4F8E405294683682046984720467D
:10244000FFF780FF29E090F81251022D02D0032DF2
:1024500021D106E00BB3802B1FD0194600F032FECD
:102460001BE012F0800F4FF0280006D002F07F0230
:1024700000FB024191F81E3103E000FB034393F897
:102480007633074803B10123036005492046022241
:10249000FFF735FF01E0FFF795FF002070BD00BF9B
:1024A000A415002038B590F81231032B04460D46D0
:1024B0000CD10A79012A09D8D0F8E4359A689047F6
:1024C000E88828B92046FFF73DFF01E0FFF77AFFD3
:1024D000002038BD70B54B78052BA2B004460D46E0
:1024E00000F0838008D8012B00F01581C0F0DA805D
:1024F000032B40F03381E6E0082B00F0C58003D8C1
:10250000062B40F02B8106E0092B00F08E80552B26
:1025100040F024810FE14888010A4B1E062B00F28F
:102520001D81DFE813F007001A0027001B011B01C3
:102530001B011B01D4F8EC15A0780A680DF1060107
:1025400090470146E888402803D094F81231012BC7
:102550003BD10822ADF8062037E0D4F8E4050DF1B0
:102560000601826AA0789047022343700146C4F8AE
:10257000F0052AE0C1B2A07805291FD8DFE801F0F4
:1025800003070B0F1317D4F8EC25536812E0D4F8A7
:10259000EC158B680EE0D4F8EC35DB680AE0D4F873
:1025A000EC25136906E0D4F8EC154B6902E0D4F889
:1025B000EC2593690DF10601984705E0D4F8E43560
:1025C0000DF10602DB6A98470146BDF806000028B7
:1025D00000F0C880EA88002A00F0C480824228BF48
:1025E0000246ADF806202046B5E08A88002A40F071
:1025F000B580C988002940F0B1806E8890F812211A
:1026000006F07F03032A1E4600F0A88080F81431EC
:10261000194600F093FD2046FFF794FE0EB102200C
:1026200000E0012084F812019CE08B784F4A012BD6
:10263000137000F2938090F81221022A03D0032A2B
:1026400040F08E8008E0002B61D00121032380F848
:10265000101180F8123114E043B9022180F81211F0
:1026600080F810311946FFF743FE50E090F8101142
:1026700001294CD0FFF73CFE3C480178204684F805
:102680001011FFF729FE42E0CA88012A66D190F8AE
:102690001231022B04D0032B62D100F588715AE06D
:1026A000334958E090F81221931E012B58D8314835
:1026B000D4F81821002101600AB1022303602046EA
:1026C0002C49022247E04B88012B2DD0022B49D107
:1026D0008A8812F0FF0F45D10069110A4A1E43682B
:1026E000042A0FD8DFE802F0030507090B000120D8
:1026F00006E0022004E0032002E0042000E00520C0
:1027000060F306131C490B60012384F81631204640
:10271000FFF718FE26E090F81221931E012B1FD818
:102720004A88012A1ED10023D4F8E425C4F81831C0
:1027300093689847EBE70978C0290FD16B886BB98C
:10274000EE88802E0AD10D49324602A800F05AFFC9
:10275000204602A93246FFF7D2FD03E02046294673
:10276000FFF730FE002022B070BD00BFA015002092
:10277000A81500209C150020E01B00207B380008D5
:1027800030B5C0B10023C55CDCB20133002DFAD1F5
:10279000631C5B00138003220B704A700138022314
:1027A00010F8012F3AB15C1CCA54E2B20233002483
:1027B0008C54DBB2F4E730BD37B50023104C0193E5
:1027C00005460320FEF766FFE8680269013C0192B6
:1027D00013D001990029F4DA019B43F00102019220
:1027E0000199074A01610369013A019302D00199F5
:1027F000C907F8D40320FEF74DFF00203EBD00BFFF
:10280000410D030030B5C4786CB900EB820003338E
:10281000D0F8D0509B1022469A4204D051F82200A2
:1028200001322860F8E7002030BD10B50332D0F83F
:10283000D0409210002393424FEA830004D02068D6
:1028400041F823000133F6E7081810BDF0B5002366
:10285000012240240129C370827084800CD102239C
:10286000082604224FF4A0740372C17206704270ED
:10287000C4804FF0A04309E041B90C23C17203703A
:1028800006214FF4A065204B4170C58003F500611F
:1028900045780161C3600246194600240432AC4207
:1028A00001F1200608D201F5106701F530611165CC
:1028B000576101343146F1E703F5806403F588611F
:1028C00044610478C0F8CC10002203F5A061A24254
:1028D00006D200EB82050132C5F890102031F6E7F0
:1028E00003F580510022A24207D200EB820501329B
:1028F000C5F8D01001F58051F5E703F56063C0F825
:102900000C310020F0BD00BF0000044038B5037A50
:102910000025012B0446C3681FD1986B617A65F3CB
:10292000104009B140F480109863DA686FF38612A2
:102930006FF396526FF351426FF3D342DA60204641
:10294000FFF73AFFE378012B19D1052161F3440524
:10295000E06845F02005856011E0DA6842F040014A
:10296000D960FFF729FF607AE36800280CBF4FF4B5
:1029700034124FF474129A631420FEF78EFEE2783C
:10298000012A06D1E368996821F03E0040F02A024E
:102990009A60002038BDC3689A6842F001009860D0
:1029A00000207047C3689A6822F0010098600020F8
:1029B0007047000007B500230193019A42F02003FD
:1029C0000193019A094B61F38A120192C26801983E
:1029D00010611169013B019102D001988006F8D481
:1029E0000320FEF757FE00200EBD00BF410D03007F
:1029F00007B500230193019941F010020192C068CC
:102A0000019B074A03610169013A019102D0019BD0
:102A1000D906F8D40320FEF73DFE00200EBD00BF0E
:102A2000410D0300C26808B5D36801296FF35D73D7
:102A30006FF39E7302D143F0005302E009B943F0F3
:102A400080433220D360FEF728FE002008BDC36813
:102A5000586900F0010181F001007047C3685869AE
:102A600000F001007047C3685A69986910407047C8
:102A700003691A6861F301021A60704710B5C368F0
:102A800000226FF080414FF0FF349A6159615C6021
:102A900059610A499961C07890420CBF10211146D2
:102AA00041F4872040F00811986941F4401120EA70
:102AB000010001439961104610BD00BF000800806D
:102AC00038B5D0F80C31016900221A6015460A6841
:102AD00065F3CC220A60C37A012B04461BD1032183
:102AE000FFF7C6FFE068C02380214FF4800263F344
:102AF0000F05416261F31F4561F30F024FF4A071AE
:102B00008262C0F8045161F30F056FF31F45C0F8EE
:102B10000851C0F80C5110212046FFF74BFF20460A
:102B2000FFF766FF206900234FF0FF320361436126
:102B30008261C36161788B4214D204EB830201335A
:102B400090690168C1F3076202F08001CAB2002AED
:102B500014BF4FF09041002101600022FF2102616B
:102B60008160E7E700236078834214D204EB83009E
:102B70000133426D1168C1F3076000F08001C8B2F3
:102B8000002814BF4FF09041002111600020FF2168
:102B900010619160E7E723691A6942F48071196155
:102BA000E078012804D1054A402161F359421A63B3
:102BB0002046FFF763FF002038BD00BF030101007E
:102BC00003699868C0F341014B1E022B02D8024AE8
:102BD000D05C704703207047FB38000803698169A7
:102BE00010B59C680A68C4F34100022802D06FF354
:102BF0000A0202E0032060F30A020A60596841F405
:102C000080725A60002010BD30B54D780B780022DC
:102C1000012D00EB830405D105FA03F5A46965F3E2
:102C20000F0205E0012505FA03F3646D63F31F420B
:102C30002368C3F3072505F08005EDB26DB98D68F3
:102C400065F30A03CD78C98865F3934361F399531B
:102C500043F0805343F4004121600069C3691A4383
:102C6000C261002030BD30B54D780B780024012DB5
:102C7000224600EB830105D105FA03F3896963F36A
:102C80000F0205E0012505FA03F3496D63F31F42C6
:102C900000696FF3CF340C60C16921EA0202C2619E
:102CA000002030BD70B54E780A78012E0B4600EB3F
:102CB000820148D18D695C6929682A6964F312022E
:102CC00014B966F3DC420BE09E68A419013CB4FB26
:102CD000F6F6DC7866F3DC42012C08BF64F35E7222
:102CE0002A61C278012A06D11A7800EB82041A6997
:102CF000A46962610CE0DA78012A09D05A693AB114
:102D000002691C78556B012606FA04F42C435463BF
:102D1000DA78012A07D102699268D20554BF41F0DE
:102D2000005141F080511A7800EB820241F00441D9
:102D300092691160D978012937D1D9681A789B8AAC
:102D4000FFF760FD31E04D6D5E692A689C68296976
:102D50002EB964F31201012464F3DC410AE0361950
:102D6000013EB6FBF4F666F3DC41B605B60D7443DE
:102D700064F312012961C178012905D11C7800EBA7
:102D800084014C6D19696161D978012906D159799D
:102D900011B142F0005201E042F080521B7800EB8A
:102DA000830042F00441426D1160002070BD73B594
:102DB0004D78012D3DD183694A691E681C690094D4
:102DC000E4B242B962F306049DF802208DF8004097
:102DD00065F3C4020EE08D68AA428ABF4D6162F3BA
:102DE000060465F306049DF802208DF800400124D6
:102DF00064F3C4028DF80220009A1A61C278012A95
:102E000005D10C7800EB840294690A69626146F08E
:102E100004461E60C378002B34D14A69002A31D0A1
:102E200003690A78586B012101FA02F202435A63DE
:102E300028E00B784E6900EB8302536D8A681D68A9
:102E40001C690094E4B206B14A6162F306049DF87D
:102E500002208DF80040012464F3C4028DF80220A2
:102E6000009A1A61C378012B05D10A7800EB82031E
:102E70005A6D0B695361097800EB810045F00445F8
:102E8000426D156000207CBD4B780978012B00EB6A
:102E900081000DD180690368C3F3076202F08001ED
:102EA000CAB20AB143F0804343F40011016004E068
:102EB000436D1A6842F400111960002070474B7886
:102EC000012B0B78C97800EB83000CBF8269426D3F
:102ED0001368881E6FF35553012898BF43F0805341
:102EE00013600020704703699A69D8691040000C8C
:102EF000704700EB810102694B6D99685069084089
:102F0000704703699869D969084080B2704782B0F8
:102F100000230093C021012200238DF8031062F3E7
:102F2000C40318218DF802308DF80010436D009A0B
:102F30001A61C178012906D100F2CC5058611A6893
:102F40004FF080221A6002B0704710B50446FFF7B8
:102F50007DFC012384F81231002384F81431627857
:102F6000934213D2282202FB034101F58E72012005
:102F700081F81D0181F81C31A1F822314020002187
:102F8000D1709060D16051610133E8E7002360782F
:102F9000834213D2282101FB034000F55D7200211A
:102FA00080F87433A0F87A3380F8751380F87713BB
:102FB00040209060D16051610133E8E72046FFF77F
:102FC000F1FC2046FFF7A2FC00212046FFF72AFD76
:102FD0002046FFF775FD2046BDE81040FFF7DBBC3B
:102FE00070B5CDB201F07F044FF0280606FB040453
:102FF00015F0800F14BF04F58E7404F55D7401F0B4
:103000007F01ED0921706570A260E37005B1E18078
:10301000022B01D1002323712146FFF7F5FD00208B
:1030200070BD10B5CAB201F07F034FF0280404FB55
:10303000030312F0800F14BF03F58E7303F55D7365
:1030400001F07F01D20919705A701946FFF70BFE83
:10305000002010BD38B501F07F04282505FB0405CC
:1030600005F55D7185F874434B610023CA608B617F
:103070004B70C378012B05F55C7508BF0A6114B964
:10308000FFF795FE01E0FFF70DFE002038BD70B59B
:1030900001F07F04282505FB040505F58E71012646
:1030A000CA600A61002285F81C414E7005F58C75D6
:1030B0008A614B6114B9FFF77AFE01E0FFF7F2FD78
:1030C000002070BDCAB212F0800F10B54FF0280377
:1030D00006D001F07F0403FB040303F58E7303E0C5
:1030E00003FB010404F55D73D209012401F07F01A3
:1030F00019709C705A701946FFF7C6FE002010BD6B
:10310000CAB212F0800F10B54FF0280306D001F0BC
:103110007F0403FB040303F58E7303E003FB010448
:1031200004F55D730024D20901F07F0119709C70D1
:103130005A701946FFF7C3FE204610BD02690023EE
:1031400061F30A1311680B431360704703695A68EF
:1031500003206FF341025A60FEF79FBA03695A6871
:1031600042F0020058600320FEF797BA2DE9F04FB5
:1031700085B00446FFF76BFC08B900203AE2204610
:10318000FFF771FC07460028F7D0C0F3074A0AF0A2
:103190000800C0B2002856D02046FFF7A4FEA34680
:1031A000804626464FF00009B8F1000F4AD018F0CB
:1031B000010F3FD05FFA89F3194620460093FFF7CD
:1031C00098FE10F0010F0546009B20D0706D012580
:1031D0008560E178A94207D10269DBF87C13C2F36C
:1031E00012000A1ACBF88C237148016820460A683D
:1031F00019469047E378012B09D1B9F1000F06D1A8
:1032000094F81101052802D12046FFF780FE05F051
:103210000201CAB212B1736D02259D6005F008006B
:10322000C1B239B1624A15682046AB689847706DE3
:103230000821816009F101094FEA580804360BF1B1
:10324000280BB1E701200AF0040A5FFA8AF3002B89
:1032500000F0B1802046FFF754FE264681464FF02D
:103260000008B9F1000F00F0A58019F0010F00F07F
:1032700099805FFA88FA236904EB8A0019695D6B0B
:10328000826925FA0AF59068EA01D5B20D43054036
:10329000EA071BD5586B464A012505FA08F120EAD2
:1032A00001005863B36910689D6051464368204629
:1032B0009847E178A94209D1B8F1000F06D194F8F6
:1032C0001121042A02D12046FFF721FE05F0080053
:1032D000C3B213B1B16908258D6005F01002D0B2F8
:1032E00010B1B36910259D6005F04001CAB212B15A
:1032F000B0694025856005F00203D9B211B1B26909
:103300000225956025F07F0010F0FF0F4AD028239A
:1033100003FB084101F58C75019504356869AB69BB
:10332000AA68C11AB069914238BF0A4602F1030C7B
:1033300082694FEA9C0C93B2634530D9A9696A69E6
:1033400091422CD25AB3A868C1EB020B834528BF27
:1033500083460BF1030E4FEA9E0CE968CDF800C0DE
:1033600052461FFA8BF32046FFF74CFAEB68AA6926
:10337000DDF800C003EB0B010BEB0200E960A86174
:103380006969B36988429A69D5D301982569027938
:103390006B6B012101FA02F023EA00036B63B5694C
:1033A0008022AA6008F101084FEA5909043658E75B
:1033B000040000200120FDB205F00201CAB212B1E2
:1033C000E36802215961C7F3076202F08003D9B2B2
:1033D000C9B1A07A40B1D4F80C31D4F80C216FF304
:1033E00041036FF3000313602169844A486820F0A9
:1033F00001034B60116820468B699847E0684FF0E5
:10340000004242610120C7F3072808F00801CBB24F
:103410006BB37A4994F812210B6800208DF80F00E5
:103420008DF80F2020465A6990472069E36882682A
:103430004FF400615961A07AC0B1D30716D594F852
:103440001521012A12D19DF80F30032B0ED1D4F88B
:103450000C11086840F001020A600B6843F0030099
:10346000086067490A6942F006030B61012005F014
:103470000801CAB242B1614803682046D96888474A
:10348000E06808224261012005F01005EDB2002D30
:1034900035D0E668B36923F01001B161366A28229D
:1034A00006F00F00C6F3434302FB0045022B05F56F
:1034B0005D750DD0062B1CD104F2CC51204608229C
:1034C000FFF7B3F9A969C6F30A168819A86110E0D5
:1034D00047F6F072324062B1C6F30A16E968324626
:1034E0002046FFF7A2F9EB68A86999198619E960E7
:1034F000AE61E3689A6942F010019961012008F019
:103500001003DAB2002A34D026697068002520F052
:103510000101716020462946FFF74CFA23462A46EE
:1035200066780433B24206D25E69FF21B160186D3D
:1035300001328160F4E70126206966F30F050B2153
:103540004FF0FF3266F31F458261C5614161016141
:1035500003686FF30A1303602046FFF7D8FC27497E
:10356000E0680B684FF4805242611A692046904728
:10357000304608F020085FFA88F1E9B12046FFF7ED
:103580002DFBE5682046ED68FFF71AFB032806D1FE
:1035900000214FF40070A170A080092204E00120F6
:1035A0004023A070A3800522E36862F38D254FF4C9
:1035B0000052DD6001205A61C7F3074707F0100190
:1035C000CBB24BB10D4802682046D1698847E36809
:1035D0004FF480105861012007F02007FFB24FB16F
:1035E000064A116820460B6A9847E0684FF40012BB
:1035F0004261012005B0BDE8F08F00BF040000204B
:1036000000ED00E010B50023934203D0CC5CC4541D
:103610000133F9E710BD0000000002408000000007
:10362000000402400080000000040240200000006E
:1036300000000240200000000004024000200000C2
:1036400000040240080000000004024004000000E2
:10365000000C0240000800000004024000100000BE
:10366000000C024000040000000002400080000046
:103670000004024000010000FFFFFFFF0000000007
:1036800000000000004000080800000000000000EA
:1036900000800008100000000000000000C00008CA
:1036A00018000000000000000000010820000000D9
:1036B00000000000000002082800000000000000D8
:1036C00000000408300000000000000000000608B0
:1036D0003800000000000000000008084000000062
:1036E0000000000000000A08480000000000000080
:1036F00000000C08500000000000000000000E0850
:103700005800000000000000000002030301020353
:1037100003030303020203014D494F5333320053A5
:10372000544D33324634444953434F564552590061
:1037300053544D3332463478780025303878003F82
:10374000002564004D494F53333220426F6F746C33
:103750006F6164657200286329203230313420544F
:103760002E204B6C6F7365002025303258002020CE
:103770002000253038582000F000007E3200000084
:10378000B11500088D15000877140008000000002E
:103790007B1400087B150008691500080000000074
:1037A000000000000000000081140008351500082A
:1037B000040309041201000200000040C016FE03C9
:1037C00010100102030100005514000861140008E4
:1037D0003D150008C51400088D14000831150008B7
:1037E0002D1500083432006D696469626F782E6FA0
:1037F00072670009026500020104803209040000BA
:10380000000101000209240100010900010109046D
:103810000100020103000207240100014100062407
:10382000020101000624020202000924030103012F
:10383000020100092403020401010100090502023A
:10384000400000000005250101010905810240003A
:1038500000000005250101036D1400086F14000825
:10386000A9150008731400087514000871140008E5
:10387000A3150008286E756C6C2900D10FED54CF8C
:10388000C5FBB89752389138910E7D0FED389301F2
:10389000910E9100C11F020E91F7041040006E10AE
:1038A0006EE76A0000000000000000000000000059
:1038B0000000000000000000000400000000000004
:1038C000000000000000002F55461F00D848403778
:1038D0006AF76A00300000C7062E734A2C137BE992
:1038E0007F32002A280D9BFE0B21EF422A2F73B551
:1038F000B8DA76E679BF0FEB793E0B0201020000E1
:1039000010100000080000202D2200087921000876
:1039100031210008D720000803210008BB2000083F
:10392000A5200008E7200008F5200008000000009E
:103930000000000000000000FFFFFFFFFFFFFFFF8F
:10394000FFFFFFFFFFFFFFFFFFFFFFFFFFFFFFFF87
:10395000FFFFFFFFFFFFFFFFFFFFFFFFFFFFFFFF77
:10396000FFFFFFFFFFFFFFFFFFFFFFFFFFFFFFFF67
:10397000FFFFFFFFFFFFFFFFFFFFFFFFFFFFFFFF57
:1040000000000220C1CB0408BDCB0408E9B90408B4
:10401000BDCB0408BDCB0408BDCB040800000000E4
:1040200000000000000000000000000071C804084B
:10403000BDCB040800000000D1C8040815C904085D
:10404000BDCB0408BDCB0408BDCB0408BDCB040820
:10405000BDCB0408BDCB0408BDCB0408BDCB040810
:10406000BDCB0408BDCB0408BDCB0408BDCB040800
:10407000BDCB0408C10605089D060508BDCB040894
:10408000BDCB0408BDCB0408BDCB0408BDCB0408E0
:10409000BDCB0408BDCB0408BDCB0408BDCB0408D0
:1040A000BDCB0408BDCB0408BDCB0408BDCB0408C0
:1040B000390D0508610D0508BDCB0408E12605088A
:1040C000ED260508C9260508D5260508BDCB040838
:1040D000BDCB04087D1F0508691E0508D11E050813
:1040E000BDCB0408BDCB0408BDCB0408BDCB040880
:1040F000BDCB0408BDCB0408BDCB0408BDCB040870
:10410000BDCB0408BDCB0408890D0508BDCB040850
:10411000BDCB0408C51F0508BDCB0408BDCB0408F2
:10412000BDCB0408BDCB040879060508BDCB040847
:10413000BDCB0408BDCB0408BDCB0408BDCB04082F
:10414000BDCB0408BDCB0408BDCB0408D9100508BD
:10415000BDCB0408BDCB0408BDCB0408391F05083E
:10416000BDCB0408BDCB0408BDCB0408BDCB0408FF
:10417000BDCB0408BDCB0408BDCB0408BDCB0408EF
:08418000BDCB0408BDCB04080F
:020000040801F1
:1000000010B5044620F0C8FA204648F07BF9044BAE
:10001000044A4FF4FA61002003F03AF9002010BDC1
:1000200088230608942306081FF098B910B50C46DB
:1000300020F05EFF012802D1204649F033FE002067
:1000400010BD38B504460D4620F014FF2946204661
:1000500048F068F92946204620F05CFC002038BDB5
:1000600010B54FF0FF30002440F086FB274B2046B0
:100070001C7037F0F5FD204647F006FE20463AF0AA
:10008000D3FE204600F0A6FD20463BF0F7F82046C0
:100090001EF0D2FD20461EF02BFE20461FF066FC0F
:1000A000204620F047FA204623F052F920464AF035
:1000B000A9F9204620F01CFE204639F037F82046EA
:1000C00037F058F9204625F067FA204637F0F2FC61
:1000D000204624F055FC20463AF016FE204605F056
:1000E000DBFA204629F094FD204600F0E1FC0848A8
:1000F0003DF048FD07483DF03FFD07483EF0C8F899
:10010000BDE8104005483EF0D5B800BFC10300204F
:100110002D00010829000108430001080100010821
:100120003AF092BD38B5C1F30723F72B05460C46CC
:1001300007D8002047F0F8FFA842214607D148F031
:100140003DF821462846BDE838401FF097B92846BB
:1001500005F048F80028F4DC2146284620F0E6FDAA
:10016000214628461FF00AFDEBE700002DE9F0418B
:10017000DFF8408298F800300133DBB2072B28BF4C
:10018000002388F800308C4B1B78D80701D547F046
:10019000D7FD8A4B1B78D90701D53AF073FE884CFE
:1001A0001EF0F6FB2578002D00F08E80AA1E574227
:1001B000574149F03FFC98F800307E42023DF6B2CC
:1001C00018BF0125032B00F2B180DFE803F0021C09
:1001D00038597C4951F022FB51F0E6FC0A2390FB90
:1001E000F3F202FB1300C0B23AF002FE86EA00010D
:1001F0006078C9B201383CF0CDFE394660883CF0E9
:100200008DFE294616E051F0CFFC0A2390FBF3F255
:1002100002FB1300C0B23AF0EBFD60F07F016078A2
:100220007140C9B201383CF0B5FE294660883CF007
:1002300075FE3946A0883CF071FE29461BE051F05E
:10024000B3FC0A2390FBF3F090FBF3F203FB1200E4
:10025000C0B23AF0CDFD86EA00016078C9B201383B
:100260003CF098FE294660883CF058FE2946A0885C
:100270003CF054FE3946E0883CF050FE294620E030
:1002800051F092FC642390FBF3F00A2390FBF3F20D
:1002900003FB1200C0B23AF0ABFD86EA00016078C1
:1002A000C9B201383CF076FE294660883CF036FE43
:1002B0002946A0883CF032FE2946E0883CF02EFE1C
:1002C000394620893CF02AFE3F4C2578002D6AD023
:1002D000AB1E5F425F417E42F6B249F0B3FC38B3D9
:1002E00001F0CEFA394B9C2202FB003393F8530005
:1002F00098F80030023D18BF0125042B00F10100E1
:1003000019D10A23B0FBF3F203FB1200C0B23AF09A
:100310006FFD86EA00016078C9B201383CF03AFE10
:100320003946A0783CF0FAFD29461CE0294665E7ED
:10033000274B1878DCE7052B1AD10A23B0FBF3F022
:10034000B0FBF3F203FB1200C0B23AF051FD86EAB3
:1003500000016078C9B201383CF01CFE2946A07843
:100360003CF0DCFD3946E0783CF0D8FD294617E04A
:10037000062B1CD16423B0FBF3F0C0B23AF038FD79
:1003800086EA00016078C9B201383CF003FE2946D4
:10039000A0783CF0C3FD2946E0783CF0BFFD39462B
:1003A00020793CF0BBFDBDE8F0413AF075BF29462D
:1003B000B7E700BFC003002011000020100000209C
:1003C000060000200000204101000020D829002064
:1003D000CB06002008B5084B1B78DA0701D547F09B
:1003E000F9FC1EF0E9FA054B1B78DB0703D5BDE8E5
:1003F00008403AF077BD08BD110000201000002031
:100400007047000008B5114B5B78D90717D427F067
:100410004FFD02F033F801F095F925F0C5F90C4BCA
:100420001B78DA0702D50B4847F026FD0A4B1B78EC
:10043000DB0709D5BDE8084008483AF0ADBD37F004
:1004400033F80028E3D1E4E708BD00BF40340020C2
:1004500011000020C5050108100000200906010850
:1004600010B5164C02F0E0FC01F08AFB3AF0B6FF42
:100470001EF03AFF2378022B1FD1114A1388013353
:100480009BB24FF47A711380B3FBF1F201FB12328D
:1004900092B240F2E730824203D1BDE8104020F032
:1004A00091BA41F28732934207D900202070BDE80B
:1004B0001040044B044A02F0EBBE10BDEF1D0020BB
:1004C000EA1D0020A2230608B123060810B50B4C34
:1004D00023682BB1206801213CF080F90128F9D173
:1004E00026F018FC49F0C4FF1EF0A8F9206818B1E6
:1004F000BDE810403CF0C1B810BD00BFCC030020E7
:100500000FB430B51A4CA3B02368269D2BB12068D8
:1005100001213CF063F90128F9D1284651F0A4FCEF
:10052000642815D913483DF04FFA02A851F09CFCFD
:10053000002302AA834212D102A83DF045FA2068A6
:1005400008B13CF09AF823B0BDE8304004B07047E1
:1005500027AA294602A8019242F0FDF9E5E712F820
:10056000011B01F07F0102F8011C0133E2E700BF2B
:10057000CC030020C223060837B50E4B1B78044677
:100580000D466BB10C490D4BC208002D18BF0B4630
:100590000093014600F0070301320948FFF7B0FF5E
:1005A00038F0EAFA2946204603B0BDE8304003F0AF
:1005B000A5BD00BFC10300201524060817240608A6
:1005C0001F24060870B50C4B1B780D4600F00F0673
:1005D000C0F307144BB1094A094B0A48002908BF68
:1005E00013463246611CFFF78BFF2A4631462046F0
:1005F000BDE8704002F0C2BBC1030020172406080A
:10060000152406084524060873B5184B1B780646C2
:100610000C46154673B1164A164BC908002D18BF73
:100620001346009300F1410204F007031248013120
:10063000FFF766FF38F0A0FA32F048FB78B91F2CBC
:1006400006D9A4F13003072B84BFE4B284F0070479
:100650002946204602B0BDE8704003F04FBD04F5C6
:100660008074294604EB8610F4E700BFC103002024
:1006700015240608172406086824060838B5094B0F
:100680001B7804460D4623B10A4601460648FFF78B
:1006900037FF38F071FA29462046BDE8384003F0AC
:1006A00047BC00BFC1030020902406082DE9F04F8D
:1006B00095B032F013FB08B93EF05EFAB94C94F9EC
:1006C0000030002B00F3B480B74E306801213CF0BD
:1006D00085F80128F9D14CF0EFF90128054640F0E2
:1006E000B08094F900309BB14CF05AFAAF49024601
:1006F0000CA842F021F94FF4FA61AD4BAD4A02204B
:1007000002F0C6FD4CF04CFA0146AB48FFF7F8FE8C
:1007100029F092FBA948AA49FFF7F2FE012029F02F
:10072000BFFA0027A74D2B7893B129F0CDFB041E0B
:1007300080F21F8121464FF4FA6003F0AFFCA24B18
:10074000A2481A682146FFF7DBFE00232B70012721
:100750009F4D2B78A3B129F00DFD041E80F260811E
:1007600014F1120F40F012819A4B9B4A4FF4FA6138
:10077000002002F08DFD9948FFF7C2FE00232B7088
:10078000DFF85C8298F80030002B39D00025DFF8C4
:100790005492DFF82CA22C464FF0010B09EB4503D5
:1007A00019F815205978CDF800B0EBB202F07F02AD
:1007B000C1F3820150462AF073F90135042D44EA51
:1007C0000004EBD17E482DF03BFC2EF0FBFE36F012
:1007D00091FCC0B236F000FE002C03DB29F0D2FA07
:1007E00004430AD521464FF4FA6003F057FC764BD8
:1007F00076481A682146FFF783FE002388F8003008
:1008000030683BF03AFF77B129F048FB014650B918
:1008100047F0E4FD36F06EFCC0B236F0B9FD36F0BC
:1008200033FE36F0B5FE15B0BDE8F04F38F086B9AE
:10083000013BDBB22370002B3FF446AF15B0BDE89F
:10084000F08F02280DD1684B684A4FF4FA6102F02C
:100850001FFD6748FFF754FE29F066FAFF23237057
:100860005FE7032874D14CF07FF960B9614B624AAD
:100870004FF4FA61022002F00BFD6048FFF740FEE2
:1008800032F034FAEAE74CF075F940B95C4B5D4A56
:100890004FF4FA61022002F0FBFC5B48EEE794F9AA
:1008A0000030002B4ED0594904A851F087FB0DF1C0
:1008B00016080027FDB2284629F0F4FE002845D08E
:1008C0003135EDB20137042F08F8015FF2D12AF07B
:1008D0008DFB00280CBF2D252A252AF05BFD002862
:1008E0000CBF2D272A272AF0CFFF00280CBF4FF07E
:1008F0002D084FF02A082CF0C7F900280CBF4FF044
:100900002D094FF053092EF005FA00280CBF4FF0C7
:100910002D0A4FF0470A32F0D9F900280CBF2D23D9
:100920002A23CDE902A33A493B462A46CDE900896C
:100930000CA842F001F80CAB04AA4FF4FA610220B3
:1009400002F0A6FCFF2323700127EBE62D25B9E773
:100950000028BFF6E6AEFF2301464FF4FA6023708D
:1009600003F09CFB184B19481A682946FFF7C8FD8D
:10097000D7E6284B284A4FF47A71002002F088FC11
:100980002648FFF7BDFD29F0FDF9DEE621464FF4CC
:10099000FA6003F083FB0C4B0C481A682146FFF702
:1009A000AFFDEBE600000020D40300209E240608E3
:1009B000A8240608B4240608C7240608DE2406086E
:1009C000353D0020AC060020CC150120D5250608B9
:1009D000AD060020352606083F2606084C260608E8
:1009E000AB060020D0380020F2240608FE240608BA
:1009F0001325060829250608352506084A25060870
:100A00005D2506087225060887250608AD25060817
:100A1000B9250608FC2506080A2606081826060831
:100A2000064B074A4FF47A71002002F031FC05486A
:100A3000FFF766FD29F0A6F9A0E600BFFC25060831
:100A4000612606086E26060810B54FF47A74013C3C
:100A50000120A4B23BF0DAFAFFF702FD002CF6D138
:100A6000FFF724FEF1E707B53BF0A2F90190012161
:100A700001A83BF0A3FA3BF09BF9019B421F9A426D
:100A800088BF0190FFF7BEFCF1E707B53BF090F996
:100A90000190012101A83BF091FA3BF089F9019BFB
:100AA000421F9A4288BF0190FFF710FDF1E7000056
:100AB00037B504203BF0CFFD1C4B186004203BF001
:100AC000CAFD1B4B186004203BF0C5FD194B186094
:100AD00004203BF0C0FD184B186004203BF0BBFD28
:100AE000164B1749186000240423CDE90034022571
:100AF000234640F20D2213483BF04CF8234612499E
:100B00000194009540F20D2210483BF043F8104943
:100B1000104823464FF4AF72CDE900543BF03AF849
:100B200020464EF055FB204603B030BDD4030020D4
:100B3000D0030020CC030020C8030020C403002001
:100B40006A5606088B0A01088A260608670A010801
:100B500094260608490A010810B5054C23682BB1F4
:100B6000206801213BF03AFE0128F9D110BD00BFF9
:100B7000C4030020024B186808B13BF07EBD7047EB
:100B8000C403002010B5054C23682BB12068012157
:100B90003BF024FE0128F9D110BD00BFCC0300209A
:100BA000024B186808B13BF068BD7047CC030020C9
:100BB00010B5044C206801213BF010FE0128F9D14A
:100BC00010BD00BFD0030020014B18683BF055BD9D
:100BD000D0030020F7B5154D002455F82410204609
:100BE00001343CF013FA122CF7D110203CF0BEF87F
:100BF0000F4A0023136053600E4A1C461370537053
:100C00009370D3706D461427E6B2314628463AF009
:100C100067FA8DF8057095E80600304601343AF021
:100C200049FA032CF0D1002003B0F0BDC00A070838
:100C3000DE030020DA030020FAB1114B9B7813F099
:100C4000200F104B13D0104A127802F00602062A29
:100C50000DD19C2202FB0030036ECB1A002B0CDB63
:100C6000436E5B1A002B08DD90F86C0070479C22E5
:100C700002FB003090F8530070474FF0FF30704790
:100C800040340020D829002010000020144B5B784D
:100C90009B0716D508BB134B5A7860F300025A70B5
:100CA0001A7812F0010104BF61F306021A701A7873
:100CB000C2F3000181F0010161F300021A7000200B
:100CC0007047084A138823F4807323F00103002837
:100CD00008BF43F001031380F1E74FF0FF30704786
:100CE000B8000020D4060020134B1B7813F0040F2B
:100CF000124B19D038B95A78C2F3400181F0010182
:100D000061F341025A700E4A1278920658BF587821
:100D10005A784ABFB0FA80F0C0F34000400960F34F
:100D200082025A70002070475978B0FA80F2520956
:100D300062F341015970E6E7B8000020D4060020B4
:100D4000A80600200A4A13780133DBB2834224BF8D
:100D500000F1FF30C3B21370064B01221A70064B2C
:100D6000FF221A70054B00201870054B1880704741
:100D7000B40600202104002020040020B806002032
:100D8000B606002038B5044618BB134D48F06AFF7C
:100D90002B7883F001032B703FF08CF82B7863B134
:100DA00048F058FF30B90D4B01221A703FF096F809
:100DB000204638BD49F074F8F8E748F04BFF08B911
:100DC000064B1C7048F03EFF0028EFD149F056F862
:100DD000ECE74FF0FF34EBE7B0060020343400209E
:100DE000084B10B51C7814F00104014608D1064BDD
:100DF0001B682BB112209847044B1C70044B1C80BD
:100E0000002010BDD4060020C8040020B806002031
:100E1000B6060020084B10B51C7814F001040146FA
:100E200008D1064B1B682BB113209847044B1C704C
:100E3000044B1C80002010BDD4060020C8040020F4
:100E4000B8060020B60600200C4B10B5DA781C78E6
:100E50000146B0FA80F0400960F3C71214F00104B3
:100E6000DA7008D1064B1B682BB115209847054B4B
:100E70001C70054B1C80002010BD00BFD406002054
:100E8000C8040020B8060020B60600200C4B10B5A0
:100E9000DA781C780146B0FA80F0400960F38612D7
:100EA00014F00104DA7008D1064B1B682BB1142032
:100EB0009847054B1C70054B1C80002010BD00BFDF
:100EC000D4060020C8040020B8060020B606002082
:100ED000014B186000207047C8040020014B1860C7
:100EE00000207047C4040020014B186000207047A8
:100EF000C0040020014B186000207047BC04002093
:100F0000014B186000207047B804002070B50C46F3
:100F1000164605463EF0CEFF044B1E60044B1D6096
:100F2000044B1C803EF0DAFF002070BDAC040020B2
:100F3000B00400206404002010B504463EF0BAFF5F
:100F4000044B1A68A24204BF00221A603EF0C6FF9A
:100F5000002010BDB0040020014B18600020704735
:100F6000B4040020034B1B6803B118474FF0FF3057
:100F7000704700BFB40400202DE9F0411E4F1F4D03
:100F80003B788342064622D0DFF87480D8F80030E0
:100F900003B198471B4B00241C703BF07BFC1A4BA1
:100FA0003E701C60194BC8F800401C60184B1C6058
:100FB000184B1C60184B1C60184B1C603BF07AFCF3
:100FC0006B7823F006036B70154B01221A70154BDA
:100FD0005B789B0742BF2B7823F001032B706B7863
:100FE00043F001036B703B780F2B84BF0E4A1370E4
:100FF0000020BDE8F08100BFC1060020D40600201B
:10100000B8040020AE060020C8040020C40400205C
:10101000C0040020BC040020B4040020B004002060
:10102000DC060020B8000020C00600200A4610B5EB
:10103000184B014618B9187961F341001871164828
:101040001B78007803F0010300F02000034307D071
:10105000E9B9D0B204F0F2FCFFF78EFF002010BD1A
:101060000E4C01202388904071B123EA00032380B5
:101070000B4B1B68002BF1D0D0B29847094A0023D4
:101080001370094A1380E9E703439BB2EFE74FF07F
:10109000FF30E4E7D406002011000020C60600203F
:1010A000C8040020B8060020B606002010B5234B67
:1010B00000282CD1224A234914780C700321117086
:1010C0001A7942F002021A711F4A9178CA0726D58E
:1010D00000282FD11A7894065CBF60F306021A70BC
:1010E0001878C0F3401080F00100C0B21A7860F3A5
:1010F00045121A704A0718D41B78144A9B061278B6
:1011000011D5134B07201A70FFF736FF0DE01A793F
:1011100091075FBF0B4A1178094A1170D4E7B0FA02
:1011200080F04009E2E7072A01D0002010BD084BFB
:101130001878E9E74FF0FF30F8E700BFD406002049
:10114000D40400201F040020B8000020C1060020A5
:10115000BB06002038B52A4D0446002835D1294B5E
:10116000294A1978117005221A702B7943F002036D
:101170002B71264B1B78112B02D0133B012B02D86D
:101180001020FFF7F9FE224A53789B0625D5002C44
:1011900032D12B7818075CBF64F306032B702C78D0
:1011A000C4F3C00484F00104E4B22B7864F3C303F5
:1011B0002B709378590706D42A78144B12071B78A2
:1011C00015D5042B0DD1002038BD2B799A075FBFB0
:1011D0000D4B1A780B4B1A70D5E7B4FA84F46409F6
:1011E000E3E70C4A04201370FFF7C6FEEBE7042B7D
:1011F000E9D1084B1878F7E74FF0FF30E4E700BF7C
:10120000D4060020D40400201B040020C1060020C6
:10121000B8000020BE06002010B5244B00282ED1B7
:10122000234A244914780C70012111701A7942F074
:1012300002021A71204A5178490728D5002831D175
:1012400093F900100029A2BF197860F30601197004
:1012500001201978927860F3C711197053071CD4D4
:10126000164A4BB2002B127815DA382A18BF144BE5
:101270004FF0380018BF1A70FFF77EFE0DE01A79A4
:1012800094075FBF0B4A1178094A1170D2E7B0FA90
:1012900080F04009DDE7382A01D0002010BD084B5E
:1012A0001878E9E74FF0FF30F8E700BFD4060020D8
:1012B000D404002014040020B8000020C10600203F
:1012C000BA0600200E4B10B51C7814F0010401463C
:1012D00003D0BDE81040FFF79FBFB0FA80F2587806
:1012E000520962F3C3005870064B1B682BB11120E2
:1012F0009847054B1C70054B1C80002010BD00BF9B
:10130000D4060020C8040020B8060020B60600203D
:1013100008B5174B9B789A071ED530BB154A137832
:1013200013F0400104BF61F3060313701078C0F39B
:10133000801080F00100C0B20E4A137860F386136B
:1013400013700D4A5B0612780AD50C4B08201A70F0
:10135000FFF712FE002008BDB0FA80F04009EBE76D
:10136000082AF7D1054B1878F2E74FF0FF30F2E783
:10137000B8000020D4060020C1060020130400207D
:1013800010B5164BC8B9164A164914780C700721C7
:1013900011701A7942F002021A71134A92785207B8
:1013A00013D45A7800280CBF0121002161F34512A3
:1013B0005A700ED04FF0FF3010BD1A7994075FBFFE
:1013C000084A1178064A1170E7E70028F2D1002098
:1013D000F2E71120FFF7D0FDF9E700BFD4060020A7
:1013E000D404002012040020B800002038B5254D98
:1013F000044600282FD1244B244A19781170022268
:101400001A702B79102013432B71FFF7B5FD204A7A
:101410005378DB0627D5002C30D12B7898075CBF9A
:1014200064F306032B702C78C4F3400484F00104A9
:10143000E4B22B7864F341032B709378590718D4E6
:101440002A78144B92071B7811D5134A0320137086
:10145000FFF792FD0DE02B799A075FBF0B4B1A78CF
:10146000094B1A70D3E7B4FA84F46409E1E7032B5B
:1014700001D0002038BD084B1878E9E74FF0FF3065
:10148000F8E700BFD4060020D40400201004002098
:10149000B8000020C1060020BF06002038B5044671
:1014A000D0B948F0CFFB0E4D68B148F0D3FB30B94E
:1014B00001232B700B4B00221A60204638BD2C7084
:1014C00048F0EEFCF6E72C7036F0A8F9204623F041
:1014D000A1FD1FF041FFEDE74FF0FF34EDE700BF46
:1014E00034340020CC04002073B5044600283ED1DB
:1014F000204B1B78DB0704D502B0BDE8704014F028
:1015000035BF48F0AFFB48F0A5FB98B948F09AFB0F
:1015100080B1194B1A780AB102221A706D4628461A
:101520003EF0AEFC95E80300144E86E8030020462A
:1015300002B070BD124E336893B90025E8B20122A3
:101540000021013533F0FEFB102DF7D1306808B1D2
:101550003BF093F8084B00221A7048F07DFCDDE761
:10156000306801213BF03AF90128F9D1E5E74FF065
:10157000FF34DCE7D406002034340020CC04002003
:10158000CC0300202DE9F04F5D4B1B78022B8BB074
:101590000DD13EF08FFC5B4B1C7800221A703EF0A0
:1015A0009DFC20460BB0BDE8F04F36F09BBB564D7E
:1015B0002B88002B00F09080544B1B78022B00F0FE
:1015C00092800AD8012B0BBF00270127282427244B
:1015D000DFF83C81DFF83C911FE0DA1E012A00F2BF
:1015E0008B80042B4C4B1B6815BF01270027272439
:1015F0002824002B70D0494B1A884FF47A73B2FB21
:10160000F3F2013292B2012A68D14549454850F0BF
:10161000D5FCDFF81481DFF814912E8841484FF48F
:101620007A73B6FBF3F203FB1266B6B2FA23B6FB8B
:10163000F3F650F019FC054608903D4850F014FCB4
:1016400085420990B8BF05461FB1093C641B04F0F0
:10165000FF04720009EB46030393531C09EB0301DB
:1016600042444344DFF8BCA004910592069300264F
:101670000DF1200B3146204636F02AFB5BF8267030
:10168000BD42B4BF00230123C6EB4618002BA5EBD7
:10169000070908EB070014BF4A46002220215044E6
:1016A000079350F081FB079B06980399007809780F
:1016B000002B0AEB080308BF4FF000091F4400226B
:1016C00007F80920049A1278019005980078009094
:1016D000184836F011FC6EB1002063E71649114836
:1016E00041F02AF995E70027DFF85080DFF85090A5
:1016F0003C4692E70126BDE70127272468E700BFA3
:10170000EF1D0020E91D0020680400206604002071
:10171000800B0708890B0708B00400206404002030
:10172000A12606086A040020920B07089B0B0708F5
:1017300089040020C8260608B4260608A40B07085A
:10174000AD0B0708F8B5404B1B78022B36D03F494C
:101750000B8801339BB2B3F5FA7F31D20B800B8833
:101760003B493C4A097810781029C0B233D1B3F50F
:10177000967F34BF002301231370137883421EBF6A
:10178000354B01221A70354A138833B1013B9BB2A5
:10179000138013B9304B01221A70314A13880BB1F0
:1017A000013B13802F4A13780133DBB2032B15D88A
:1017B00013702D4D2D4B2A6892BB1A800020F8BD66
:1017C0002B4A00230B8013780133DBB21370224BBA
:1017D00001221A70C3E7B3F5E17FCAE70023137053
:1017E0003BF058F8234A102392F8921011B10139B6
:1017F00082F89210013B13F0FF0302F19C02F3D137
:101800001D49102211F8013B58B20028C4BF03F152
:10181000FF3301F8013C013AF4D13BF04BF8C8E743
:101820001C88002CCAD0013CA4B21C80002CC5D15D
:101830003EF040FB114B2E681F682C603EF04EFBC3
:101840003846B047BAE700BFEF1D0020B6060020BB
:10185000C1060020B9060020DD060020C4060020D5
:1018600068040020ED030020B00400206404002080
:10187000B8060020D829002080430020AC040020B6
:101880000D4A0E4B11781B888A00134113F0080F84
:1018900014BF0320002013F0040F18BF022013F020
:1018A000020F18BF012013F0010F18BF002000EB3A
:1018B0008100C0B2704700BFD2060020D0060020D1
:1018C00073B5224D98B1EB78002B33D0FFF7D8FFDA
:1018D0001F4B197835F0F0F913281E4B2DD81E4AEE
:1018E000C240D20729D59A7842F002029A70194E66
:1018F000002420463BF098FBB378019013F0060FCC
:101900000CBF01230223C0F3072063F301008DF80D
:101910000500B4B92B789DF8052003F0070363F3A5
:1019200084028DF805202046019901343BF06EFBBE
:10193000122CDED1002002B070BD9A7822F0020293
:10194000D4E7112C0CBF6B78AB78E4E712000020D1
:10195000CF060020D4060020F809080038B5044658
:10196000C0B90E4B1B78142B04D10D4B03311970E9
:10197000204638BD0B4D2A788A4207D00A48297084
:1019800003889200134189008B4003800120FFF7F8
:1019900097FFEDE74FF0FF34EAE700BFC1060020F4
:1019A000CA060020D2060020D006002070B5154ED1
:1019B000012332780C4603FA01F518B12A4332703C
:1019C000002070BD22EA050232700F4E3678133EB9
:1019D000012E03D8BDE87040FFF7C0BF0B4909785E
:1019E00004EB810485F00F018A42094A03FA04F3EB
:1019F00018BF11889BB218BF4B4001201380FFF71E
:101A00005FFFDDE7DE010020C1060020D2060020D6
:101A1000D006002038B52B4D044600283DD12A4B76
:101A20002A4A1978117004221A702B7943F00203A4
:101A30002B71274B1B78112B02D0133B012B02D8A3
:101A40001020FFF799FA234A53785B062DD5002C16
:101A500034D12B7858075CBF64F306032B702C78C5
:101A6000C4F3800484F00104E4B22B7864F38203AD
:101A70002B70937859070BD42A78154B52071B7893
:101A800017D5052B04D0144A05201370FFF774FAFC
:101A90000120FFF715FF002038BD2B799A075FBFA3
:101AA0000A4B1A78084B1A70CDE7B4FA84F464092B
:101AB000DBE7052BECD1084B1878E7E74FF0FF3058
:101AC000EAE700BFD4060020D40400201D04002053
:101AD000C1060020B8000020BD060020124B10B542
:101AE0005A78041E0CBF0121002161F304125A70C0
:101AF00006D00E4B1B78102B08D04FF0FF3009E0BA
:101B00001020FFF739FA0120FFF7DAFE084B1B68B7
:101B10000BB9002010BD214616209847054A002326
:101B20001370054A1380F4E7D4060020C106002094
:101B3000C8040020B8060020B606002008B50E4BE9
:101B40001B78DB0711D5A0B90C4B9878C0F3400087
:101B500080F00100C0B2094B9A7860F34102002086
:101B60009A70FFF7ADFE002008BDB0FA80F0400982
:101B7000F1E74FF0FF30F7E7B8000020D40600206F
:101B80002DE9F74FDFF81093FFF77AFE99F8003050
:101B9000022B804600F04B8431F0A0F8002800F0C2
:101BA0005684BE4BBE4D1F782B78BE4C132BA0899C
:101BB00007F0060740F02E83BB4E3178B1FA81F171
:101BC000490939F0A3F83178E08901F1FF3BDBF1F5
:101BD000000141EB0B0139F099F83178208A8B1E16
:101BE0005942594139F092F83178032914BF002144
:101BF0000121608A39F08AF82B78B4F87A00072B33
:101C000000F04283062F40F04183A84B1978CE1E86
:101C10007142714139F07AF82B78A54E142B40F0BF
:101C20003783DFF890A2A08A9AF80010B1FA81F108
:101C3000490939F06BF89AF80010E08A4B1E5942B6
:101C4000594139F063F89AF80010208B8A1E5142EE
:101C5000514139F05BF82B78B4F87600052B00F091
:101C60003683062F40F03583904B1978A1F1040A92
:101C7000DAF1000141EB0A0139F048F82B78142B16
:101C800040F02983DFF82CA29AF80010C81E4142C8
:101C90004141A08E39F03AF89AF80010E08EA1F197
:101CA000040CDCF1000141EB0C0139F02FF89AF83B
:101CB0000010208FA1F1050EDEF1000141EB0E01B5
:101CC00039F024F89AF800100629DFF8ECA1608FAB
:101CD00014BF0021012139F019F89AF80010A08FE3
:101CE000B1FA81F1490939F011F89AF80010E08F42
:101CF00001F1FF3BDBF1000141EB0B0139F006F88C
:101D00009AF80030B4F84000012B96BF31780121D9
:101D1000C1F3C00138F0FAFF2B78B4F87400042B3B
:101D200000F0F782062F40F0F682604B1978A1F19F
:101D3000050EDEF1000141EB0E0138F0E7FF2B78D4
:101D4000B4F87800062B00F0E882062F40F0E78216
:101D5000564B1978A1F1060CDCF1000141EB0C01A6
:101D600038F0D4FF2978A1F1100041424141608C44
:101D700038F0CCFF2B78A08C112B00F0D282062FEC
:101D800040F0D182494B1978CA1F5142514138F075
:101D9000BDFF2978E08CA1F113035942594138F075
:101DA000B5FF35F081FB0146208D002900F0BD8292
:101DB000012138F0ABFFB178608D11F0010140F0E6
:101DC000C182062F07D1394B1978A1F1080ADAF13F
:101DD000000141EB0A0138F099FF2978B4F8860038
:101DE000A1F1150EDEF1000141EB0E0138F08EFF7E
:101DF0002978B4F88800A1F1180ADAF1000141EB62
:101E00000A0138F083FF2978B4F88A00DFF8ACA023
:101E1000A1F11D0BDBF1000141EB0B0138F076FF66
:101E20002978B4F88C00A1F11B035942594138F0CC
:101E30006DFF2978B4F88E00A1F119025142514189
:101E400038F064FF2978A1F11F0041424141B4F804
:101E5000920038F05BFF2978B4F89000A1F11C0CD7
:101E6000DCF1000141EB0C0138F050FF2978B4F8A7
:101E70009400A1F1020EDEF1000141EB0E0138F0F9
:101E800045FFB178A08DC1F3C00138F03FFFB178B4
:101E9000E08DC1F3400113E0EF1D00201000002091
:101EA000C106002016000020D2060020D404002025
:101EB000D4060020CA060020CE0600209833002059
:101EC00038F024FFB178208EC1F3800138F01EFF76
:101ED0007178608EC1F3400138F018FF47F0B2FE10
:101EE000834668B1C14B1B78002B00F02D82BAF8F5
:101EF000003013F0030F0CBF4FF0010B4FF0000B3D
:101F0000B4F84200594638F001FFB4F84400B84B29
:101F1000BBF1000F40F01B821978B1FA81F1490939
:101F200038F0F4FEB24BB4F84600197849B1AF4B23
:101F30001B78002B00F00D82AE4B1978003918BFCA
:101F4000012138F0E3FEB178B4F84800C1F3401144
:101F500038F0DCFEB178B4F84A00C1F3801138F0F3
:101F6000D5FE9AF80810B4F84C00C1F3801138F08F
:101F7000CDFE9AF80810B4F84E00C90938F0C6FE34
:101F80002B78B4F87200032B00F0E581062F40F0A7
:101F9000E481994B1978A1F1020CDCF1000141EBCD
:101FA0000C0138F0B3FE7178B4F85200C1F3C001EF
:101FB00038F0ACFE3178B4F8540001F0010138F08B
:101FC000A5FE2B78B4F85600382B00F0C881062FF8
